:100000000C9446000C9465000C9465000C946500FB
:100010000C9465000C9465000C9465000C946500CC
:100020000C9465000C9465000C9465000C946500BC
:100030000C9465000C94DE000C9465000C94650033
:100040000C9465000C9465000C9465000C9465009C
:100050000C9465000C9465000C9465000C9465008C
:100060000C9465000C9465000C9465000C9465007C
:100070000C9465000C9465000C9465000C9465006C
:100080000C9465000C9465000C94650011241FBE4F
:10009000CFEFD0E4DEBFCDBF11E0A0E0B1E0E6E2FB
:1000A000F5E000E00BBF02C007900D92A231B1074E
:1000B000D9F721E0A2E1B1E001C01D92AA31B20757
:1000C000E1F70E9469020C9491020C940000CF9316
:1000D000DF9300D01F92CDB7DEB789837B836A831D
:1000E00089818A3031F48A819B81BC018DE00E9434
:1000F000670080EC90E0FC018081882F90E08072A6
:100100009927892BB1F386EC90E02981FC012083AB
:1001100080E090E00F900F900F90DF91CF910895C5
:10012000CF93DF93CDB7DEB781E08093120100005B
:10013000DF91CF910895CF93DF93CDB7DEB781E8FC
:1001400090E02BE0FC01208388E890E02DE730E090
:10015000FC01318320838FE690E022E0FC012083C4
:1001600084E890E0FC011182108280910E01909150
:100170000F01A0911001B091110180931301909390
:100180001401A0931501B09316018FE590E02FE5BF
:1001900030E0F90120812068FC0120830000DF911C
:1001A000CF910895CF93DF93CDB7DEB781E890E08C
:1001B000FC0110820000DF91CF9108951F920F92F1
:1001C00000905F000F92112400905B000F922F931C
:1001D0003F934F935F936F937F938F939F93AF93CF
:1001E000BF93EF93FF93CF93DF93CDB7DEB78091AB
:1001F000130190911401A0911501B091160101977E
:10020000A109B1098093130190931401A0931501E2
:10021000B09316018091130190911401A0911501E2
:10022000B0911601892B8A2B8B2B91F40E949000A0
:1002300080910E0190910F01A0911001B0911101D8
:100240008093130190931401A0931501B0931601AC
:100250000000DF91CF91FF91EF91BF91AF919F91FE
:100260008F917F916F915F914F913F912F910F905F
:1002700000925B000F9000925F000F901F90189506
:10028000CF93DF9300D000D0CDB7DEB769837A83F8
:100290008B839C8389819A81AB81BC8180930E0181
:1002A00090930F01A0931001B093110180910E0162
:1002B00090910F01A0911001B09111018093130151
:1002C00090931401A0931501B093160100000F90B4
:1002D0000F900F900F90DF91CF910895CF93DF9300
:1002E000CDB7DEB780911801909119018230910548
:1002F00009F18330910528F4009771F0019799F086
:1003000079C08430910509F445C08430910550F1DD
:10031000059709F457C06EC081E090E090931901F1
:10032000809318016CC082E090E090931901809353
:10033000180165C080E290E0FC018081882F90E088
:1003400081709927892B39F483E090E0909319010B
:100350008093180154C082E090E09093190180933B
:1003600018014DC080E290E0FC018081882F90E070
:1003700081709927892B39F483E090E090931901DB
:10038000809318013CC084E090E090931901809321
:10039000180135C080E290E0FC018081882F90E058
:1003A00081709927892B39F485E090E090931901A9
:1003B0008093180124C084E090E090931901809309
:1003C00018011DC080E290E0FC018081882F90E040
:1003D00081709927892B39F485E090E09093190179
:1003E000809318010CC081E090E0909319018093F4
:1003F000180105C010921901109218010000809197
:1004000018019091190182309105D9F0833091053E
:1004100030F4009709F452C0019769F056C0843057
:10042000910509F44DC08430910508F44BC005973F
:1004300009F44AC04AC085E290E021E0FC01208333
:1004400044C0809117018823E9F485E290E0FC0123
:100450008081843069F485E290E025E230E0F901A2
:1004600020812695FC01208381E0809317012DC017
:1004700085E290E025E230E0F9012081220FFC01C5
:10048000208323C085E290E0FC018081813061F40B
:1004900085E290E025E230E0F9012081220FFC01A5
:1004A00020831092170111C085E290E025E230E030
:1004B000F90120812695FC01208307C0000005C0BA
:1004C000000003C0000001C000000000DF91CF91D8
:1004D0000895CF93DF93CDB7DEB781E290E0FC01C2
:1004E000108282E290E02FEFFC01208384E290E012
:1004F0002FEFFC01208385E290E0FC0110826CE28A
:1005000071E080E090E00E9440010E949B000E9408
:100510006E010000809112018823E1F31092120114
:06052000F6CFF894FFCFB6
:10052600000000020000000067000000000001005B
:020536000000C3
:00000001FF
