:100000000C9446000C9465000C9465000C946500FB
:100010000C9465000C9465000C9465000C946500CC
:100020000C9465000C9465000C9465000C946500BC
:100030000C9465000C9465000C9465000C946500AC
:100040000C9465000C9465000C9465000C9465009C
:100050000C9465000C9465000C9465000C9465008C
:100060000C9465000C9465000C9465000C9465007C
:100070000C9465000C9465000C9465000C9465006C
:100080000C9465000C9465000C94650011241FBE4F
:10009000CFEFD0E4DEBFCDBF11E0A0E0B1E0EAE8F1
:1000A000F2E000E00BBF02C007900D92AE30B10746
:1000B000D9F711E0AEE0B1E001C01D92A031B10767
:1000C000E1F70E9426010C9443010C940000CF93A9
:1000D000DF9300D01F92CDB7DEB789837B836A831D
:1000E00089818A3031F48A819B81BC018DE00E9434
:1000F000670080EC90E0FC018081882F90E08072A6
:1001000099270097B1F386EC90E02981FC012083C8
:1001100080E090E00F900F900F90DF91CF910895C5
:10012000CF93DF93CDB7DEB780910E0190910F0191
:100130008130910589F08130910538F08230910548
:1001400029F183309105E1F155C081E090E0909371
:100150000F0180930E014EC080E290E0FC0180818F
:10016000882331F481E090E090930F0180930E0199
:1001700080E290E0FC018081813039F482E090E0FF
:1001800090930F0180930E0135C034C080E290E05F
:10019000FC018081813031F482E090E090930F0186
:1001A00080930E0180E290E0FC018081882339F485
:1001B00083E090E090930F0180930E011BC01AC062
:1001C00080E290E0FC018081882331F483E090E0BC
:1001D00090930F0180930E0180E290E0FC018081FA
:1001E000813039F481E090E090930F0180930E010B
:1001F00000C0000080910E0190910F0181309105A7
:1002000081F08130910538F08230910581F08330A2
:10021000910599F018C085E290E021E0FC0120836F
:1002200012C085E290E022E0FC0120830CC085E250
:1002300090E022E0FC01208306C085E290E022E00D
:10024000FC0120830000DF91CF910895CF93DF93CD
:10025000CDB7DEB781E290E0FC01108282E290E04F
:10026000FC01108284E290E02FEFFC01208385E204
:1002700090E021E0FC01208310920F0110920E010A
:0A0280000E949000FDCFF894FFCF1C
:0E028A000000000200000000670000000000FD
:00000001FF
