:100000000C9462000C9481000C9481000C9481008B
:100010000C9481000C9481000C9481000C9481005C
:100020000C9481000C9481000C9481000C9481004C
:100030000C9481000C9481000C9481000C9481003C
:100040000C9481000C9481000C9481000C9481002C
:100050000C9481000C9481000C9481000C9481001C
:100060000C9481000C9481000C9481000C9481000C
:100070000C9481000C9481000C9481000C948100FC
:100080000C9481000C9481000C948100C600DC006B
:10009000F4000C0124013C0154016C0184019C0119
:1000A000B401CC01E401FC0128022D023302390223
:1000B0003F0245024B02510257025D026302690290
:1000C0006F02750211241FBECFEFD0E4DEBFCDBF9B
:1000D00011E0A0E0B1E0ECE4F5E000E00BBF02C00D
:1000E00007900D92AE30B107D9F721E0AEE0B1E054
:1000F00001C01D92A031B207E1F70E947E020C946C
:10010000A4020C940000CF93DF9300D01F92CDB7D0
:10011000DEB789837B836A8389818A3031F48A815F
:100120009B81BC018DE00E94830080EC90E0FC018B
:100130008081882F90E080729927892BB1F386EC1B
:1001400090E02981FC01208380E090E00F900F90E7
:100150000F90DF91CF910895CF93DF93CDB7DEB7A6
:1001600080910E0190910F01CC01A0E0B0E040E041
:1001700050E02DE030E0841B950B2817390708F478
:1001800051C18A5B9F4FFC010C949B0280E290E07E
:10019000FC018081882F90E081709927892B39F4A8
:1001A00081E090E090930F0180930E013BC110928B
:1001B0000F0110920E0136C180E290E0FC018081B7
:1001C000882F90E081709927892B39F481E090E0A5
:1001D00090930F0180930E0125C182E090E09093EF
:1001E0000F0180930E011EC180E290E0FC0180812E
:1001F000882F90E081709927892B39F483E090E073
:1002000090930F0180930E010DC182E090E09093D6
:100210000F0180930E0106C180E290E0FC01808115
:10022000882F90E081709927892B39F483E090E042
:1002300090930F0180930E01F5C084E090E09093BD
:100240000F0180930E01EEC080E290E0FC018081FE
:10025000882F90E081709927892B39F485E090E010
:1002600090930F0180930E01DDC084E090E09093A5
:100270000F0180930E01D6C080E290E0FC018081E6
:10028000882F90E081709927892B39F485E090E0E0
:1002900090930F0180930E01C5C086E090E090938B
:1002A0000F0180930E01BEC080E290E0FC018081CE
:1002B000882F90E081709927892B39F487E090E0AE
:1002C00090930F0180930E01ADC086E090E0909373
:1002D0000F0180930E01A6C080E290E0FC018081B6
:1002E000882F90E081709927892B39F487E090E07E
:1002F00090930F0180930E0195C088E090E0909359
:100300000F0180930E018EC080E290E0FC0180819D
:10031000882F90E081709927892B39F489E090E04B
:1003200090930F0180930E017DC088E090E0909340
:100330000F0180930E0176C080E290E0FC01808185
:10034000882F90E081709927892B39F489E090E01B
:1003500090930F0180930E0165C08AE090E0909326
:100360000F0180930E015EC080E290E0FC0180816D
:10037000882F90E081709927892B39F48BE090E0E9
:1003800090930F0180930E014DC08AE090E090930E
:100390000F0180930E0146C080E290E0FC01808155
:1003A000882F90E081709927892B39F48BE090E0B9
:1003B00090930F0180930E0135C08CE090E09093F4
:1003C0000F0180930E012EC080E290E0FC0180813D
:1003D000882F90E081709927892B39F48DE090E087
:1003E00090930F0180930E011DC08CE090E09093DC
:1003F0000F0180930E0116C080E290E0FC01808125
:10040000882F90E081709927892B39F48DE090E056
:1004100090930F0180930E0104C010920F0110926F
:100420000E01000080910E0190910F01CC01A0E01F
:10043000B0E040E050E02DE030E0841B950B281741
:10044000390708F457C08C5A9F4FFC010C949B024B
:1004500085E290E0FC0110824DC085E290E021E051
:10046000FC01208347C085E290E021E0FC0120836D
:1004700041C085E290E024E0FC0120833BC085E29E
:1004800090E024E0FC01208335C085E290E020E18B
:10049000FC0120832FC085E290E020E1FC01208355
:1004A00029C085E290E022E0FC01208323C085E2A0
:1004B00090E022E0FC0120831DC085E290E028E06E
:1004C000FC01208317C085E290E028E0FC01208336
:1004D00011C085E290E020E2FC0120830BC085E2A0
:1004E00090E020E2FC01208305C085E290E0FC0161
:1004F000108200000000DF91CF910895CF93DF9329
:10050000CDB7DEB781E290E0FC01108282E290E09C
:100510002FEFFC01208384E290E02FEFFC01208389
:1005200085E290E0FC01108210920F0110920E0102
:100530000E94AC00FDCFEE0FFF1F0024001C0BBE7D
:0C0540000790F691E02D0994F894FFCF8D
:0E054C0000000002000000008300000000001C
:00000001FF
