:100000000C9446000C9465000C9465000C946500FB
:100010000C9465000C9465000C9465000C946500CC
:100020000C9465000C9465000C9465000C946500BC
:100030000C9465000C94DE000C9465000C94650033
:100040000C9465000C9465000C9465000C9465009C
:100050000C9465000C9465000C9465000C9465008C
:100060000C9465000C9465000C9465000C9465007C
:100070000C9465000C9465000C9465000C9465006C
:100080000C9465000C9465000C94650011241FBE4F
:10009000CFEFD0E4DEBFCDBF11E0A0E0B1E0E6E4F9
:1000A000FAE000E00BBF02C007900D92A033B10749
:1000B000D9F721E0A0E3B1E001C01D92AD33B20752
:1000C000E1F70E9422030C9421050C940000CF93C9
:1000D000DF9300D01F92CDB7DEB789837B836A831D
:1000E00089818A3031F48A819B81BC018DE00E9434
:1000F000670080EC90E0FC018081882F90E08072A6
:100100009927892BB1F386EC90E02981FC012083AB
:1001100080E090E00F900F900F90DF91CF910895C5
:10012000CF93DF93CDB7DEB781E08093300100003D
:10013000DF91CF910895CF93DF93CDB7DEB781E8FC
:1001400090E02BE0FC01208388E890E02DE730E090
:10015000FC01318320838FE690E022E0FC012083C4
:1001600084E890E0FC011182108280910E01909150
:100170000F01A0911001B091110180933101909372
:100180003201A0933301B09334018FE590E02FE565
:1001900030E0F90120812068FC0120830000DF911C
:1001A000CF910895CF93DF93CDB7DEB781E890E08C
:1001B000FC0110820000DF91CF9108951F920F92F1
:1001C00000905F000F92112400905B000F922F931C
:1001D0003F934F935F936F937F938F939F93AF93CF
:1001E000BF93EF93FF93CF93DF93CDB7DEB78091AB
:1001F000310190913201A0913301B0913401019706
:10020000A109B1098093310190933201A093330188
:10021000B09334018091310190913201A09133016A
:10022000B0913401892B8A2B8B2B91F40E94900082
:1002300080910E0190910F01A0911001B0911101D8
:100240008093310190933201A0933301B093340134
:100250000000DF91CF91FF91EF91BF91AF919F91FE
:100260008F917F916F915F914F913F912F910F905F
:1002700000925B000F9000925F000F901F90189506
:10028000CF93DF9300D000D0CDB7DEB769837A83F8
:100290008B839C8389819A81AB81BC8180930E0181
:1002A00090930F01A0931001B093110180910E0162
:1002B00090910F01A0911001B09111018093310133
:1002C00090933201A0933301B093340100000F905A
:1002D0000F900F900F90DF91CF9108950F931F9380
:1002E000CF93DF9300D000D0CDB7DEB769837A8398
:1002F0008B839C838091370190913801A0913901C3
:10030000B0913A019C01AD0169817A818B819C8118
:100310000E945003882309F477C020E030E0A9014F
:1003200069817A818B819C810E945003882351F4DA
:1003300081E990E021E930E0F90120812870FC0199
:10034000208309C081E990E021E930E0F9012081B2
:100350002360FC01208328E539E344E75FE36981FA
:100360007A818B819C810E945003882344F488E920
:1003700090E02FEF3FEFFC013183208334C020E079
:1003800034E244EF56E469817A818B819C810E943A
:10039000AF04181634F488E990E0FC011182108251
:1003A00022C008E910E020E030E040E053E4698139
:1003B0007A818B819C810E94B404DC01CB019C0179
:1003C000AD0160E074E284EF9AE40E945503DC0121
:1003D000CB01BC01CD010E94C703DC01CB01019719
:1003E000F8019183808384E990E0FC0111821082FE
:1003F00089819A81AB81BC818093370190933801C8
:10040000A0933901B0933A0100000F900F900F9024
:100410000F90DF91CF911F910F910895CF93DF93AC
:10042000CDB7DEB780E990E020E4FC01208381E9CC
:1004300090E02BE0FC01208360E070E0CB010E94A3
:100440006E010000DF91CF910895CF93DF93CDB778
:10045000DEB780E990E0FC01108281E990E0FC01C8
:1004600010820000DF91CF910895CF93DF93CDB735
:10047000DEB780913B0190913C0181309105E9F01C
:100480008130910520F0029709F47FC095C080E289
:1004900090E0FC018081882F90E081709927892B62
:1004A00039F481E090E090933C0180933B0184C05B
:1004B00010923C0110923B017FC0809135019091D8
:1004C0003601880F991F8E5E9E4FFC0180819181BD
:1004D000892B69F068EE73E080E090E00E944001B3
:1004E00081E090E090933C0180933B0164C0809157
:1004F000350190913601880F991F8E5E9E4FFC0149
:1005000080819181892BC9F480E290E0FC01808197
:10051000882F90E081709927892B79F010923C0107
:1005200010923B01109236011092350164E670E0A2
:1005300080E090E00E9440013EC0809135019091A2
:100540003601880F991F8E5E9E4FFC01808191813C
:10055000892B89F580E290E0FC018081882F90E072
:1005600081709927892B39F5109236011092350147
:1005700064E670E080E090E00E94400182E090E05C
:1005800090933C0180933B0116C080E290E0FC0117
:100590008081882F90E081709927892B39F482E03F
:1005A00090E090933C0180933B0106C010923C0187
:1005B00010923B0101C0000080913B0190913C01F1
:1005C0008130910561F08130910518F0029781F139
:1005D00035C060E070E0CB010E946E012FC068EE74
:1005E00073E080E090E00E9440018091350190919D
:1005F0003601880F991F8E5E9E4FFC01808191818C
:10060000092E000CAA0BBB0BBC01CD010E94FF03FD
:10061000DC01CB01BC01CD010E946E01809135014E
:10062000909136010196909336018093350106C072
:1006300060E070E0CB010E946E0100000000DF91DD
:10064000CF910895CF93DF93CDB7DEB781E290E0ED
:10065000FC01108282E290E02FEFFC01208384E213
:1006600090E02FEFFC01208385E290E0FC011082F6
:1006700064E670E080E090E00E9440010E940E027B
:100680000E949B0010923C0110923B010E94350297
:100690000000809130018823E1F310923001F6CF01
:1006A0000E943A0408F481E008950E9469030C94C2
:1006B00075040E946E0458F00E94670440F029F40B
:1006C0005F3F29F00C945E0451110C94A9040C9422
:1006D00064040E94860468F39923B1F3552391F3CF
:1006E000951B550BBB27AA2762177307840738F0A1
:1006F0009F5F5F4F220F331F441FAA1FA9F335D0FE
:100700000E2E3AF0E0E832D091505040E695001CB1
:10071000CAF72BD0FE2F29D0660F771F881FBB1F6B
:10072000261737074807AB07B0E809F0BB0B802D49
:10073000BF01FF2793585F4F3AF09E3F510578F075
:100740000C945E040C94A9045F3FE4F3983ED4F348
:10075000869577956795B795F7959F5FC9F7880F49
:10076000911D9695879597F90895E1E0660F771F9B
:10077000881FBB1F621773078407BA0720F0621B2C
:10078000730B840BBA0BEE1F88F7E09508950E9457
:10079000CE036894B1110C94A90408950E948E04AC
:1007A00088F09F5798F0B92F9927B751B0F0E1F032
:1007B000660F771F881F991F1AF0BA95C9F714C0E2
:1007C000B13091F00E94A804B1E008950C94A804FF
:1007D000672F782F8827B85F39F0B93FCCF386951B
:1007E00077956795B395D9F73EF490958095709578
:1007F00061957F4F8F4F9F4F0895E89409C097FBF5
:100800003EF490958095709561957F4F8F4F9F4FE7
:100810009923A9F0F92F96E9BB279395F69587952B
:1008200077956795B795F111F8CFFAF4BB0F11F4EE
:1008300060FF1BC06F5F7F4F8F4F9F4F16C0882395
:1008400011F096E911C0772321F09EE8872F762FCB
:1008500005C0662371F096E8862F70E060E02AF00C
:100860009A95660F771F881FDAF7880F96958795F8
:1008700097F90895990F0008550FAA0BE0E8FEEFCD
:1008800016161706E807F907C0F012161306E40754
:10089000F50798F0621B730B840B950B39F40A264D
:1008A00061F0232B242B252B21F408950A2609F42B
:1008B000A140A6958FEF811D811D089597F99F672F
:1008C00080E870E060E008959FEF80EC08950024D8
:1008D0000A941616170618060906089500240A94A5
:1008E00012161306140605060895092E0394000C2B
:1008F00011F4882352F0BB0F40F4BF2B11F460FFBA
:1009000004C06F5F7F4F8F4F9F4F089557FD9058E2
:10091000440F551F59F05F3F71F04795880F97FBC3
:10092000991F61F09F3F79F087950895121613067D
:100930001406551FF2CF4695F1DF08C016161706AC
:100940001806991FF1CF86957105610508940895E1
:10095000E894BB2766277727CB0197F908950E9473
:100960003A0408F48FEF08950E94C7040C947504AC
:100970000E94670438F00E946E0420F0952311F065
:100980000C945E040C94640411240C94A9040E9439
:10099000860470F3959FC1F3950F50E0551F629F39
:1009A000F001729FBB27F00DB11D639FAA27F00DC8
:1009B000B11DAA1F649F6627B00DA11D661F829FEF
:1009C0002227B00DA11D621F739FB00DA11D621FD4
:1009D000839FA00D611D221F749F3327A00D611DF1
:1009E000231F849F600D211D822F762F6A2F1124D3
:1009F0009F5750409AF0F1F088234AF0EE0FFF1F06
:100A0000BB1F661F771F881F91505040A9F79E3F5C
:100A1000510580F00C945E040C94A9045F3FE4F34C
:100A2000983ED4F3869577956795B795F795E795B2
:100A30009F5FC1F7FE2B880F911D9695879597F9BB
:060A40000895F894FFCFB9
:100A46000000000200000000670000000000010036
:100A560000000501050188018801B801B801880177
:100A66005D015D01490149012501250105010000DE
:00000001FF
