:100000000C9446000C9465000C9465000C946500FB
:100010000C9465000C9465000C9465000C946500CC
:100020000C9465000C9465000C9465000C946500BC
:100030000C9465000C94DE000C9465000C94650033
:100040000C9465000C9465000C9465000C9465009C
:100050000C9465000C9465000C9465000C9465008C
:100060000C9465000C9465000C9465000C9465007C
:100070000C9465000C9465000C9465000C9465006C
:100080000C9465000C9465000C94650011241FBE4F
:10009000CFEFD0E4DEBFCDBF11E0A0E0B1E0E6E7F6
:1000A000FAE000E00BBF02C007900D92A831B10743
:1000B000D9F721E0A8E1B1E001C01D92A532B20755
:1000C000E1F70E943A030C9439050C940000CF9399
:1000D000DF9300D01F92CDB7DEB789837B836A831D
:1000E00089818A3031F48A819B81BC018DE00E9434
:1000F000670080EC90E0FC018081882F90E08072A6
:100100009927892BB1F386EC90E02981FC012083AB
:1001100080E090E00F900F900F90DF91CF910895C5
:10012000CF93DF93CDB7DEB781E080931801000055
:10013000DF91CF910895CF93DF93CDB7DEB781E8FC
:1001400090E02BE0FC01208388E890E02DE730E090
:10015000FC01318320838FE690E022E0FC012083C4
:1001600084E890E0FC011182108280910E01909150
:100170000F01A0911001B09111018093190190938A
:100180001A01A0931B01B0931C018FE590E02FE5AD
:1001900030E0F90120812068FC0120830000DF911C
:1001A000CF910895CF93DF93CDB7DEB781E890E08C
:1001B000FC0110820000DF91CF9108951F920F92F1
:1001C00000905F000F92112400905B000F922F931C
:1001D0003F934F935F936F937F938F939F93AF93CF
:1001E000BF93EF93FF93CF93DF93CDB7DEB78091AB
:1001F000190190911A01A0911B01B0911C01019766
:10020000A109B1098093190190931A01A0931B01D0
:10021000B0931C018091190190911A01A0911B01CA
:10022000B0911C01892B8A2B8B2B91F40E9490009A
:1002300080910E0190910F01A0911001B0911101D8
:100240008093190190931A01A0931B01B0931C0194
:100250000000DF91CF91FF91EF91BF91AF919F91FE
:100260008F917F916F915F914F913F912F910F905F
:1002700000925B000F9000925F000F901F90189506
:10028000CF93DF9300D000D0CDB7DEB769837A83F8
:100290008B839C8389819A81AB81BC8180930E0181
:1002A00090930F01A0931001B093110180910E0162
:1002B00090910F01A0911001B0911101809319014B
:1002C00090931A01A0931B01B0931C0100000F90A2
:1002D0000F900F900F90DF91CF9108950F931F9380
:1002E000CF93DF9300D000D0CDB7DEB769837A8398
:1002F0008B839C8380911F0190912001A09121010B
:10030000B09122019C01AD0169817A818B819C8130
:100310000E946803882309F477C020E030E0A90137
:1003200069817A818B819C810E946803882351F4C2
:1003300081E990E021E930E0F90120812870FC0199
:10034000208309C081E990E021E930E0F9012081B2
:100350002360FC01208328E539E344E75FE36981FA
:100360007A818B819C810E946803882344F488E908
:1003700090E02FEF3FEFFC013183208334C020E079
:1003800034E244EF56E469817A818B819C810E943A
:10039000C704181634F488E990E0FC011182108239
:1003A00022C008E910E020E030E040E053E4698139
:1003B0007A818B819C810E94CC04DC01CB019C0161
:1003C000AD0160E074E284EF9AE40E946D03DC0109
:1003D000CB01BC01CD010E94DF03DC01CB01019701
:1003E000F8019183808384E990E0FC0111821082FE
:1003F00089819A81AB81BC8180931F0190932001F8
:10040000A0932101B093220100000F900F900F9054
:100410000F90DF91CF911F910F910895CF93DF93AC
:10042000CDB7DEB780E990E020E4FC01208381E9CC
:1004300090E02BE0FC01208360E070E0CB010E94A3
:100440006E010000DF91CF910895CF93DF93CDB778
:10045000DEB780E990E0FC01108281E990E0FC01C8
:1004600010820000DF91CF910895CF93DF93CDB735
:10047000DEB780912301909124018130910539F1FB
:100480008130910540F08230910509F47EC00397D8
:1004900009F493C098C080E290E0FC018081882F2D
:1004A00090E081709927892B69F481E090E0909326
:1004B00024018093230160E070E08CED93E40E94BE
:1004C0006E0181C010922401109223017CC08091A2
:1004D0001D0190911E01880F991F8E5E9E4FFC0199
:1004E00080819181892B69F068EE73E080E090E073
:1004F0000E94400181E090E09093240180932301C9
:1005000061C080911D0190911E01880F991F8E5E20
:100510009E4FFC0180819181892BC9F480E290E09B
:10052000FC018081882F90E081709927892B79F0D8
:10053000109224011092230110921E0110921D01AD
:1005400064E670E080E090E00E9440013BC0809152
:100550001D0190911E01880F991F8E5E9E4FFC0118
:1005600080819181892B71F580E290E0FC0180818E
:10057000882F90E081709927892B21F582E090E007
:1005800090932401809323011DC080E290E0FC0140
:100590008081882F90E081709927892B39F482E03F
:1005A00090E090932401809323010DC083E090E0BC
:1005B000909324018093230106C01092240110928D
:1005C000230101C00000809123019091240181301A
:1005D000910579F08130910530F08230910591F1EB
:1005E0000397B9F143C060E070E0CB010E946E0157
:1005F0003DC068EE73E080E090E00E944001809191
:100600001D0190911E01880F991F8E5E9E4FFC0167
:1006100080819181092E000CAA0BBB0BBC01CD017E
:100620000E941704DC01CB01BC01CD010E946E01C8
:1006300080911D0190911E01019690931E0180935F
:100640001D0114C06DE37AEA82E893E40E946E0112
:100650000DC060E070E08CED93E40E946E0164E6F2
:1006600070E080E090E00E94400100000000DF9117
:10067000CF910895CF93DF93CDB7DEB781E290E0BD
:10068000FC01108282E290E02FEFFC01208384E2E3
:1006900090E02FEFFC01208385E290E0FC011082C6
:1006A00064E670E080E090E00E9440010E940E024B
:1006B0000E949B0010922401109223010E94350297
:1006C0000000809118018823E1F310921801F6CF01
:1006D0000E94520408F481E008950E9481030C9462
:1006E0008D040E94860458F00E947F0440F029F493
:1006F0005F3F29F00C94760451110C94C1040C94C2
:100700007C040E949E0468F39923B1F3552391F36E
:10071000951B550BBB27AA2762177307840738F070
:100720009F5F5F4F220F331F441FAA1FA9F335D0CD
:100730000E2E3AF0E0E832D091505040E695001C81
:10074000CAF72BD0FE2F29D0660F771F881FBB1F3B
:10075000261737074807AB07B0E809F0BB0B802D19
:10076000BF01FF2793585F4F3AF09E3F510578F045
:100770000C9476040C94C1045F3FE4F3983ED4F3E8
:10078000869577956795B795F7959F5FC9F7880F19
:10079000911D9695879597F90895E1E0660F771F6B
:1007A000881FBB1F621773078407BA0720F0621BFC
:1007B000730B840BBA0BEE1F88F7E09508950E9427
:1007C000E6036894B1110C94C10408950E94A60434
:1007D00088F09F5798F0B92F9927B751B0F0E1F002
:1007E000660F771F881F991F1AF0BA95C9F714C0B2
:1007F000B13091F00E94C004B1E008950C94C0049F
:10080000672F782F8827B85F39F0B93FCCF38695EA
:1008100077956795B395D9F73EF490958095709547
:1008200061957F4F8F4F9F4F0895E89409C097FBC4
:100830003EF490958095709561957F4F8F4F9F4FB7
:100840009923A9F0F92F96E9BB279395F6958795FB
:1008500077956795B795F111F8CFFAF4BB0F11F4BE
:1008600060FF1BC06F5F7F4F8F4F9F4F16C0882365
:1008700011F096E911C0772321F09EE8872F762F9B
:1008800005C0662371F096E8862F70E060E02AF0DC
:100890009A95660F771F881FDAF7880F96958795C8
:1008A00097F90895990F0008550FAA0BE0E8FEEF9D
:1008B00016161706E807F907C0F012161306E40724
:1008C000F50798F0621B730B840B950B39F40A261D
:1008D00061F0232B242B252B21F408950A2609F4FB
:1008E000A140A6958FEF811D811D089597F99F67FF
:1008F00080E870E060E008959FEF80EC08950024A8
:100900000A941616170618060906089500240A9474
:1009100012161306140605060895092E0394000CFA
:1009200011F4882352F0BB0F40F4BF2B11F460FF89
:1009300004C06F5F7F4F8F4F9F4F089557FD9058B2
:10094000440F551F59F05F3F71F04795880F97FB93
:10095000991F61F09F3F79F087950895121613064D
:100960001406551FF2CF4695F1DF08C0161617067C
:100970001806991FF1CF86957105610508940895B1
:10098000E894BB2766277727CB0197F908950E9443
:10099000520408F48FEF08950E94DF040C948D0434
:1009A0000E947F0438F00E94860420F0952311F005
:1009B0000C9476040C947C0411240C94C1040E94C1
:1009C0009E0470F3959FC1F3950F50E0551F629FF1
:1009D000F001729FBB27F00DB11D639FAA27F00D98
:1009E000B11DAA1F649F6627B00DA11D661F829FBF
:1009F0002227B00DA11D621F739FB00DA11D621FA4
:100A0000839FA00D611D221F749F3327A00D611DC0
:100A1000231F849F600D211D822F762F6A2F1124A2
:100A20009F5750409AF0F1F088234AF0EE0FFF1FD5
:100A3000BB1F661F771F881F91505040A9F79E3F2C
:100A4000510580F00C9476040C94C1045F3FE4F3EC
:100A5000983ED4F3869577956795B795F795E79582
:100A60009F5FC1F7FE2B880F911D9695879597F98B
:060A70000895F894FFCF89
:100A76000000000200000000670000000000010006
:080A860000000501250100003C
:00000001FF
