:100000000C9446000C9465000C9465000C946500FB
:100010000C9465000C9465000C9465000C946500CC
:100020000C9465000C9465000C9465000C946500BC
:100030000C9465000C9465000C9465000C946500AC
:100040000C9465000C9465000C9465000C9465009C
:100050000C9465000C9465000C9465000C9465008C
:100060000C9465000C9465000C9465000C9465007C
:100070000C9465000C9465000C9465000C9465006C
:100080000C9465000C9465000C94650011241FBE4F
:10009000CFEFD0E4DEBFCDBF11E0A0E0B1E0E2EFF2
:1000A000F2E000E00BBF02C007900D92A031B10753
:1000B000D9F721E0A0E1B1E001C01D92A231B20761
:1000C000E1F70E94A1000C9477010C940000CF93FB
:1000D000DF9300D01F92CDB7DEB789837B836A831D
:1000E00089818A3031F48A819B81BC018DE00E9434
:1000F000670080EC90E0FC018081882F90E08072A6
:100100009927892BB1F386EC90E02981FC012083AB
:1001100080E090E00F900F900F90DF91CF910895C5
:10012000CF93DF93CDB7DEB78AE790E02AE730E0E0
:10013000F9012081206EFC0120830000DF91CF9126
:100140000895CF93DF9300D01F92CDB7DEB781E241
:1001500090E0FC01108282E290E02FEFFC0120830E
:1001600084E290E02FEFFC01208385E290E0FC0127
:1001700010828AE290E02FEFFC0120838BE290E076
:10018000FC0110820E94900088E790E0FC018081D1
:1001900091819093110180931001809110019091B1
:1001A0001101898380910E0190910F019695879599
:1001B00096958795969587959B838A838981282F25
:1001C00030E08A819B818217930730F085E290E0CE
:1001D00021E0FC012083D8CF8981282F30E08A815B
:1001E0009B81880F991F8217930730F085E290E07A
:1001F00023E0FC012083C8CF8981482F50E02A8169
:100200003B81C901880F991F820F931F841795079F
:1002100030F085E290E027E0FC012083B5CF8981B2
:10022000282F30E08A819B81880F991F880F991FA2
:100230008217930730F085E290E02FE0FC012083E5
:10024000A3CF8981482F50E02A813B81C901880FC3
:10025000991F880F991F820F931F8417950730F0FD
:1002600085E290E02FE1FC0120838ECF8981482F29
:1002700050E02A813B81C901880F991F820F931F8B
:10028000880F991F8417950730F085E290E02FE3DF
:10029000FC01208379CF8981482F50E02A813B815E
:1002A000C901880F991F880F991F880F991F821BFA
:1002B000930B8417950730F085E290E02FE7FC015F
:1002C000208362CF8981282F30E08A819B81880F2B
:1002D000991F880F991F880F991F8217930708F499
:1002E00053CF85E290E02FEFFC0120834DCFF894AF
:0202F000FFCF3E
:1002F20000000002000000006700000000000C0384
:00000001FF
