:100000000C9446000C9465000C9465000C946500FB
:100010000C9465000C9465000C9465000C946500CC
:100020000C9465000C9465000C9465000C946500BC
:100030000C9465000C94DE000C9465000C94650033
:100040000C9465000C9465000C9465000C9465009C
:100050000C9465000C9465000C9465000C9465008C
:100060000C9465000C9465000C9465000C9465007C
:100070000C9465000C9465000C9465000C9465006C
:100080000C9465000C9465000C94650011241FBE4F
:10009000CFEFD0E4DEBFCDBF11E0A0E0B1E0E4E1FE
:1000A000F7E000E00BBF02C007900D92A831B10746
:1000B000D9F721E0A8E1B1E001C01D92AA32B20750
:1000C000E1F70E94FE020C9488030C940000CF9389
:1000D000DF9300D01F92CDB7DEB789837B836A831D
:1000E00089818A3031F48A819B81BC018DE00E9434
:1000F000670080EC90E0FC018081882F90E08072A6
:100100009927892BB1F386EC90E02981FC012083AB
:1001100080E090E00F900F900F90DF91CF910895C5
:10012000CF93DF93CDB7DEB781E080931801000055
:10013000DF91CF910895CF93DF93CDB7DEB781E8FC
:1001400090E02BE0FC01208388E890E02DE730E090
:10015000FC01318320838FE690E022E0FC012083C4
:1001600084E890E0FC011182108280910E01909150
:100170000F01A0911001B09111018093190190938A
:100180001A01A0931B01B0931C018FE590E02FE5AD
:1001900030E0F90120812068FC0120830000DF911C
:1001A000CF910895CF93DF93CDB7DEB781E890E08C
:1001B000FC0110820000DF91CF9108951F920F92F1
:1001C00000905F000F92112400905B000F922F931C
:1001D0003F934F935F936F937F938F939F93AF93CF
:1001E000BF93EF93FF93CF93DF93CDB7DEB78091AB
:1001F000190190911A01A0911B01B0911C01019766
:10020000A109B1098093190190931A01A0931B01D0
:10021000B0931C018091190190911A01A0911B01CA
:10022000B0911C01892B8A2B8B2B91F40E9490009A
:1002300080910E0190910F01A0911001B0911101D8
:100240008093190190931A01A0931B01B0931C0194
:100250000000DF91CF91FF91EF91BF91AF919F91FE
:100260008F917F916F915F914F913F912F910F905F
:1002700000925B000F9000925F000F901F90189506
:10028000CF93DF9300D000D0CDB7DEB769837A83F8
:100290008B839C8389819A81AB81BC8180930E0181
:1002A00090930F01A0931001B093110180910E0162
:1002B00090910F01A0911001B0911101809319014B
:1002C00090931A01A0931B01B0931C0100000F90A2
:1002D0000F900F900F90DF91CF910895CF93DF9300
:1002E000CDB7DEB780912401909125018130910531
:1002F00069F08130910518F0029779F013C081E020
:1003000090E090932501809324010CC082E090E05E
:10031000909325018093240105C01092250110922D
:1003200024010000809124019091250181309105E4
:1003300051F08130910518F0029749F00CC081E02E
:1003400080931D0108C082E080931D0104C084E0F9
:1003500080931D0100000000DF91CF910895CF939D
:10036000DF93CDB7DEB780912801909129010097E6
:1003700019F0019741F00CC081E090E090932901C1
:100380008093280105C010922901109228010000D5
:100390008091280190912901009719F0019721F08F
:1003A00007C010921E0104C081E080931E0100006E
:1003B0000000DF91CF910895CF93DF93CDB7DEB7E3
:1003C00080912601909127018230910509F46EC039
:1003D0008330910530F4009761F0019709F447C02C
:1003E00084C08330910509F45AC0049709F465C0AC
:1003F0007CC080E290E0FC018081882F90E08095B5
:10040000909587709927049739F481E090E0909354
:1004100027018093260169C080E290E0FC01808181
:10042000882F90E08095909587709927019739F4EF
:1004300082E090E0909327018093260156C080E2ED
:1004400090E0FC018081882F90E0809590958770E6
:100450009927029739F483E090E0909327018093E5
:10046000260143C010922701109226013EC080E26F
:1004700090E0FC018081882F90E0809590958770B6
:100480009927892B29F410922701109226012DC05B
:1004900081E090E0909327018093260126C084E0BC
:1004A00090E090932701809326011FC084E090E0A4
:1004B000909327018093260118C080E290E0FC0110
:1004C0008081882F90E08095909587709927892B5F
:1004D00029F4109227011092260106C084E090E0D2
:1004E000909327018093260100008091260190912E
:1004F00027018130910579F08130910538F0823003
:100500009105E1F1039709F443C04FC010921F0118
:10051000109220014AC080912101882F90E08E5EC8
:100520009E4FFC01908180912001981720F081E07E
:1005300080931F011DC080912001482F50E08091C1
:100540002101882F90E08E5E9E4FFC018081282F34
:1005500030E0C901880F991F880F991F820F931FE0
:10056000841795071CF010921F0102C01092200101
:10057000809120018F5F8093200117C0809121011D
:10058000882381F0809121018150809321010AC04C
:1005900080912101863040F4809121018F5F80930A
:1005A000210102C0000001C000000000DF91CF91D6
:1005B0000895CF93DF93CDB7DEB785E290E0209129
:1005C0001F01222F30E022953295307F3227207F85
:1005D0003227422F20911E01222F30E0220F331F9D
:1005E000220F331F220F331F242B30911D01232B89
:1005F000FC0120830000DF91CF910895CF93DF931A
:10060000CDB7DEB72C970FB6F894DEBF0FBECDBFC7
:1006100081E290E0FC01108282E290E02FEFFC0189
:10062000208384E290E02FEFFC01208385E290E0BC
:10063000FC01108219821A821B821C821D821E827A
:100640001F82188681E090E0A0E0B0E089879A8759
:10065000AB87BC8761E070E080E090E00E944001E1
:100660000E949B00109225011092240110922901F2
:1006700010922801109227011092260189819A81F7
:10068000AB81BC818C329140A105B10530F00E9454
:100690006E0119821A821B821C828D819E81AF811C
:1006A000B885883E9340A105B10530F00E94AF01A6
:1006B0001D821E821F8218860E94DC010E94D902C0
:1006C0000000809118018823E1F31092180129811C
:1006D0003A814B815C8189859A85AB85BC85820F87
:1006E000931FA41FB51F89839A83AB83BC832D817D
:1006F0003E814F81588589859A85AB85BC85820F5F
:10070000931FA41FB51F8D839E83AF83B887B6CF79
:04071000F894FFCF8B
:10071400000000020000000067000000000001006B
:080724000000010203040506B8
:00000001FF
