:100000000C9446000C9465000C9465000C946500FB
:100010000C9465000C9465000C9465000C946500CC
:100020000C9465000C9465000C9465000C946500BC
:100030000C9465000C94B5000C9465000C9465005C
:100040000C9465000C9465000C9465000C9465009C
:100050000C9465000C9465000C9465000C9465008C
:100060000C9465000C9465000C9465000C9465007C
:100070000C9465000C9465000C9465000C9465006C
:100080000C9465000C9465000C94650011241FBE4F
:10009000CFEFD0E4DEBFCDBF11E0A0E0B1E0ECEBEC
:1000A000F8E000E00BBF02C007900D92A231B1074B
:1000B000D9F721E0A2E1B1E001C01D92A633B20759
:1000C000E1F70E942F030C945C040C940000CF9382
:1000D000DF93CDB7DEB781E0809312010000DF919E
:1000E000CF910895CF93DF93CDB7DEB781E890E04D
:1000F0002BE0FC01208388E890E02DE730E0FC0154
:10010000318320838FE690E022E0FC01208384E8A5
:1001100090E0FC0111821082809100019091010118
:10012000A0910201B09103018093130190931401F7
:10013000A0931501B09316018FE590E02FE530E014
:10014000F90120812068FC0120830000DF91CF911C
:100150000895CF93DF93CDB7DEB781E890E0FC013F
:1001600010820000DF91CF9108951F920F920090AE
:100170005F000F92112400905B000F922F933F932A
:100180004F935F936F937F938F939F93AF93BF939F
:10019000EF93FF93CF93DF93CDB7DEB78091130139
:1001A00090911401A0911501B09116010197A10938
:1001B000B1098093130190931401A0931501B0939A
:1001C00016018091130190911401A0911501B09135
:1001D0001601892B8A2B8B2B91F40E94670080914A
:1001E000000190910101A0910201B091030180935F
:1001F000130190931401A0931501B0931601000010
:10020000DF91CF91FF91EF91BF91AF919F918F912E
:100210007F916F915F914F913F912F910F9000923D
:100220005B000F9000925F000F901F901895CF9386
:10023000DF9300D000D0CDB7DEB769837A838B839C
:100240009C8389819A81AB81BC81809300019093CA
:100250000101A0930201B0930301809100019091EC
:100260000101A0910201B0910301809313019093C9
:100270001401A0931501B093160100000F900F9088
:100280000F900F90DF91CF910895CF93DF9300D01F
:100290001F92CDB7DEB789837B836A8389818A30D9
:1002A00031F48A819B81BC018DE00E94450180EC84
:1002B00090E0FC018081882F90E080729927892B43
:1002C000B1F386EC90E02981FC01208380E090E08E
:1002D0000F900F900F90DF91CF910895CF93DF9300
:1002E00000D0CDB7DEB789836A838981882F90E0FB
:1002F0002A81222F30E002C0959587952A95E2F752
:100300008170992721E0892B09F420E0822F0F903A
:100310000F90DF91CF910895CF93DF93CDB7DEB7E4
:1003200088E290E02FEEFC012083000086E290E05E
:10033000FC01808160E00E946E01882311F481E35A
:10034000B7C086E290E0FC01808161E00E946E010E
:10035000882311F484E3ACC086E290E0FC01808144
:1003600062E00E946E01882311F487E3A1C086E257
:1003700090E0FC01808163E00E946E01882311F40B
:100380008AE296C088E290E02FEDFC012083000015
:1003900086E290E0FC01808160E00E946E0188238B
:1003A00011F482E385C086E290E0FC01808161E087
:1003B0000E946E01882311F485E37AC086E290E002
:1003C000FC01808162E00E946E01882311F488E3C1
:1003D0006FC086E290E0FC01808163E00E946E01C4
:1003E000882311F480E364C088E290E02FEBFC01E5
:1003F0002083000086E290E0FC01808160E00E94A2
:100400006E01882311F483E353C086E290E0FC017F
:10041000808161E00E946E01882311F486E348C068
:1004200086E290E0FC01808162E00E946E018823F8
:1004300011F489E33DC086E290E0FC01808163E035
:100440000E946E01882311F483E232C088E290E0BA
:100450002FE7FC01208386E290E0FC01808160E0D0
:100460000E946E01882311F481E422C086E290E0AC
:10047000FC01808161E00E946E01882311F482E416
:1004800017C086E290E0FC01808162E00E946E016C
:10049000882311F483E40CC086E290E0FC018081A3
:1004A00063E00E946E01882311F484E401C080E0BF
:1004B000DF91CF910895CF93DF9300D000D0CDB7D7
:1004C000DEB79C838B830E948C01809317018B8104
:1004D0009C8181309105C9F0823091051CF4892BF3
:1004E00041F054C082309105F1F0039709F43FC008
:1004F0004DC080911701833219F01C821B8246C0C7
:1005000081E090E09C838B8341C08091170183320E
:1005100029F481E090E09C838B8338C082E090E0F6
:100520009C838B8333C0809117018823A9F080912D
:100530001E0190911F019C012F5F3F4F30931F01BF
:1005400020931E0120911701875E9E4FFC0120839E
:1005500083E090E09C838B8380911E0190911F012A
:10056000059799F484E090E09C838B830EC0809182
:100570001701882329F083E090E09C838B8306C0D9
:1005800082E090E09C838B8301C000008B819C8182
:1005900082309105D1F183309105CCF18330910502
:1005A000C1F10497B9F5809119018133A9F48091C3
:1005B0001A01823389F480911B01833369F480919D
:1005C0001C01843349F480911D01853329F485E2AF
:1005D00090E021E0FC01208310921F0110921E0187
:1005E0001A8219820BC089819A81875E9E4FFC0115
:1005F000108289819A8101969A83898389819A815F
:1006000005978CF31C821B8205C0000003C000000C
:1006100001C000008B819C810F900F900F900F9074
:10062000DF91CF910895CF93DF9300D0CDB7DEB7A0
:100630009A83898389819A81892B51F483E290E09E
:10064000FC018081882324F085E290E0FC01108287
:1006500089819A810F900F90DF91CF9108950F9328
:100660001F93CF93DF93CDB7DEB729970FB6F894DA
:10067000DEBF0FBECDBF84E290E02FE0FC012083FF
:1006800085E290E020EFFC01208387E290E020EFFC
:10069000FC01208388E290E02FE0FC01208380E2CF
:1006A00091E09F838E838BE291E09987888782E037
:1006B00090E09C838B831D828D818093200182E357
:1006C00090E0A0E0B0E08093210190932201A093FC
:1006D0002301B09324018091210190912201A091E6
:1006E0002301B09124018093250190932601A093CA
:1006F0002701B09328018BE592E090932A01809323
:1007000029018D8180932B0182E390E0A0E0B0E08D
:1007100080932C0190932D01A0932E01B0932F0173
:1007200080912C0190912D01A0912E01B0912F016B
:100730008093300190933101A0933201B093330143
:1007400083E193E0909335018093340162E370E09C
:1007500080E090E00E9417010E9472001A821982C4
:100760009BC089819A81880F991F9E012F5F3F4FFF
:10077000820F931F0596FC0180819181FC012581E8
:1007800036814781508589819A81880F991FBE01E2
:100790006F5F7F4F860F971F0596FC0180819181C7
:1007A000FC0181819281A381B481281739074A070E
:1007B0005B0709F045C089819A81880F991F9E01C6
:1007C0002F5F3F4F820F931F0596FC01008111811F
:1007D00089819A81880F991F9E012F5F3F4F820F59
:1007E000931F0596FC0180819181FC012185328552
:1007F00089819A81880F991FAE014F5F5F4F840FE7
:10080000951F0596FC0180819181FC018081082E55
:10081000000C990BF9010995F801808389819A816F
:10082000880F991F9E012F5F3F4F820F931F0596E0
:10083000FC0180819181FC0115821682178210864D
:1008400089819A81880F991F9E012F5F3F4F820FE8
:10085000931F0596FC012081318189819A81880F3F
:10086000991FAE014F5F5F4F840F951F0596FC01E6
:1008700080819181FC0185819681A781B085C29696
:10088000A11DB11DF90185839683A783B087898156
:100890009A8101969A83898329813A818B819C81EF
:1008A0002817390708F45DCF0000809112018823D2
:0C08B000E1F31092120152CFF894FFCF38
:1008BC0001000000000000020000000045010000E3
:0208CC0000002A
:00000001FF
