:100000000C948B000C94AA000C94AA000C94AA00E7
:100010000C94AA000C94AA000C94AA000C94AA00B8
:100020000C94AA000C94AA000C94AA000C94AA00A8
:100030000C94AA000C94FA000C94AA000C94AA0048
:100040000C94AA000C94AA000C94AA000C94AA0088
:100050000C94AA000C94AA000C94AA000C94AA0078
:100060000C94AA000C94AA000C94AA000C94AA0068
:100070000C94AA000C94AA000C94AA000C94AA0058
:100080000C94AA000C94AA000C94AA00CE021103AE
:1000900011031103110311031103110311031103C0
:1000A00011031103110311031103110311031103B0
:1000B00011031103110311031103110311031103A0
:1000C0001103110311031103110311031103110390
:1000D00011030D0311031103110311031103110384
:1000E0000503110311031103110311030903D102C5
:1000F000D502D902DD02E102E502E902ED02F102D8
:100100001103110311031103110311031103F5026C
:10011000F902FD02010311241FBECFEFD0E4DEBFC0
:10012000CDBF11E0A0E0B1E0E0E6F8E000E00BBFF9
:1001300002C007900D92A231B107D9F721E0A2E1E8
:10014000B1E001C01D92A432B207E1F70E94220380
:100150000C942E040C940000CF93DF93CDB7DEB740
:1001600081E0809312010000DF91CF910895CF9339
:10017000DF93CDB7DEB781E890E02BE0FC01208370
:1001800088E890E02DE730E0FC01318320838FE6A2
:1001900090E022E0FC01208384E890E0FC011182E1
:1001A00010828091000190910101A0910201B09113
:1001B00003018093130190931401A0931501B09350
:1001C00016018FE590E02FE530E0F90120812068ED
:1001D000FC0120830000DF91CF910895CF93DF933E
:1001E000CDB7DEB781E890E0FC0110820000DF911E
:1001F000CF9108951F920F9200905F000F921124EB
:1002000000905B000F922F933F934F935F936F93F8
:100210007F938F939F93AF93BF93EF93FF93CF936E
:10022000DF93CDB7DEB78091130190911401A091B7
:100230001501B09116010197A109B109809313012D
:1002400090931401A0931501B093160180911301AE
:1002500090911401A0911501B0911601892B8A2B60
:100260008B2B91F40E94AC008091000190910101D0
:10027000A0910201B09103018093130190931401A6
:10028000A0931501B09316010000DF91CF91FF916B
:10029000EF91BF91AF919F918F917F916F915F91FE
:1002A0004F913F912F910F9000925B000F90009221
:1002B0005F000F901F901895CF93DF9300D000D070
:1002C000CDB7DEB769837A838B839C8389819A81DA
:1002D000AB81BC818093000190930101A093020146
:1002E000B09303018091000190910101A09102015E
:1002F000B09103018093130190931401A093150111
:10030000B093160100000F900F900F900F90DF91A7
:10031000CF910895CF93DF9300D01F92CDB7DEB772
:1003200089837B836A8389818A3031F48A819B81C6
:10033000BC018DE00E948A0180EC90E0FC0180818C
:10034000882F90E080729927892BB1F386EC90E09A
:100350002981FC01208380E090E00F900F900F90A6
:10036000DF91CF910895CF93DF9300D0CDB7DEB763
:1003700089836A838981882F90E02A81222F30E047
:1003800002C0959587952A95E2F78170992721E01B
:10039000892B09F420E0822F0F900F90DF91CF91ED
:1003A0000895CF93DF93CDB7DEB788E290E02FEECC
:1003B000FC012083000086E290E0FC01808160E087
:1003C0000E94B301882311F481E3B7C086E290E074
:1003D000FC01808161E00E94B301882311F484E371
:1003E000ACC086E290E0FC01808162E00E94B30133
:1003F000882311F487E3A1C086E290E0FC018081AC
:1004000063E00E94B301882311F48AE296C088E277
:1004100090E02FEDFC012083000086E290E0FC01DB
:10042000808160E00E94B301882311F482E385C0DB
:1004300086E290E0FC01808161E00E94B3018823A4
:1004400011F485E37AC086E290E0FC01808162E0ED
:100450000E94B301882311F488E36FC086E290E024
:10046000FC01808163E00E94B301882311F480E3E2
:1004700064C088E290E02FEBFC012083000086E25C
:1004800090E0FC01808160E00E94B301882311F4B8
:1004900083E353C086E290E0FC01808161E00E942A
:1004A000B301882311F486E348C086E290E0FC01A2
:1004B000808162E00E94B301882311F489E33DC08A
:1004C00086E290E0FC01808163E00E94B301882312
:1004D00011F483E232C088E290E02FE7FC01208330
:1004E00086E290E0FC01808160E00E94B3018823F5
:1004F00011F481E422C086E290E0FC01808161E099
:100500000E94B301882311F482E417C086E290E0D0
:10051000FC01808162E00E94B301882311F483E42E
:100520000CC086E290E0FC01808163E00E94B30190
:10053000882311F484E401C080E0DF91CF91089515
:10054000CF93DF9300D0CDB7DEB79A8389830E9423
:10055000D1018093170189819A81892B19F41A821C
:100560001982000089819A81892B09F064C08091E9
:100570001701882F90E0092E000CAA0BBB0B40E05E
:1005800050E024E430E0841B950B2817390708F469
:1005900048C08A5B9F4FFC010C94250410921801FF
:1005A00043C080E8809318013FC080E88093180121
:1005B0003BC080E88093180137C080E88093180121
:1005C00033C080E8809318012FC080E88093180121
:1005D0002BC080E88093180127C080E88093180121
:1005E00023C080E8809318011FC080E88093180121
:1005F0001BC080E88093180117C080E88093180121
:1006000013C080E8809318010FC080E88093180120
:100610000BC080E88093180107C080E88093180120
:1006200003C010921801000085E290E020911801AB
:10063000FC012083000089819A810F900F90DF9147
:10064000CF9108950F931F93CF93DF93CDB7DEB76C
:1006500027970FB6F894DEBF0FBECDBF84E290E0BF
:100660002FEFFC01208385E290E0FC01108287E2FD
:1006700090E020EFFC01208388E290E02FE0FC0175
:10068000208389E191E09F838E8381E090E09C83C9
:100690008B831D828D818093190182E390E0A0E01D
:1006A000B0E080931A0190931B01A0931C01B093BA
:1006B0001D0180911A0190911B01A0911C01B09124
:1006C0001D0180931E0190931F01A0932001B09300
:1006D000210180EA92E0909323018093220162E35A
:1006E00070E080E090E00E945C010E94B7001A82F6
:1006F00019829BC089819A81880F991F9E012F5F63
:100700003F4F820F931F0596FC0180819181FC0170
:10071000258136814781508589819A81880F991F6B
:10072000BE016F5F7F4F860F971F0596FC0180818A
:100730009181FC0181819281A381B48128173907BD
:100740004A075B0709F045C089819A81880F991F84
:100750009E012F5F3F4F820F931F0596FC01008182
:10076000118189819A81880F991F9E012F5F3F4FC8
:10077000820F931F0596FC0180819181FC012185E8
:10078000328589819A81880F991FAE014F5F5F4F33
:10079000840F951F0596FC0180819181FC01808169
:1007A000082E000C990BF9010995F80180838981C5
:1007B0009A81880F991F9E012F5F3F4F820F931FD1
:1007C0000596FC0180819181FC01158216821782B9
:1007D000108689819A81880F991F9E012F5F3F4F54
:1007E000820F931F0596FC012081318189819A81B6
:1007F000880F991FAE014F5F5F4F840F951F0596BD
:10080000FC0180819181FC0185819681A781B08561
:10081000C296A11DB11DF90185839683A783B08778
:1008200089819A8101969A83898329813A818B8172
:100830009C812817390708F45DCF000080911201D0
:100840008823E1F31092120152CFEE0FFF1F002414
:10085000001C0BBE0790F691E02D0994F894FFCF91
:100860000100000000000002000000008A010000FA
:02087000000086
:00000001FF
