:100000000C9446000C945D000C945D000C945D0013
:100010000C945D000C945D000C945D000C945D00EC
:100020000C945D000C945D000C945D000C945D00DC
:100030000C945D000C945D000C945D000C945D00CC
:100040000C945D000C945D000C945D000C945D00BC
:100050000C945D000C945D000C945D000C945D00AC
:100060000C945D000C945D000C945D000C945D009C
:100070000C945D000C945D000C945D000C945D008C
:100080000C945D000C945D000C945D0011241FBE67
:10009000CFEFD0E4DEBFCDBF11E0A0E0B1E0E0E003
:1000A000F2E000E00BBF02C007900D92AE30B10746
:1000B000D9F70E94A6000C94FE000C940000CF9388
:1000C000DF9300D01F92CDB7DEB789837B836A832D
:1000D00089818A3031F48A819B81BC018DE00E9444
:1000E0005F0080EC90E0FC018081882F90E08072BE
:1000F00099270097B1F386EC90E02981FC012083D9
:1001000080E090E00F900F900F90DF91CF910895D5
:10011000CF93DF9300D0CDB7DEB789836A8389811F
:10012000882F90E02A81222F30E002C09595879594
:100130002A95E2F78170992721E0009709F420E0E1
:10014000822F0F900F90DF91CF910895CF93DF937F
:1001500000D000D01F92CDB7DEB781E290E0FC0165
:10016000108282E290E0FC01108284E290E0FC01C7
:10017000108285E290E0FC01108287E290E02FEF90
:10018000FC01208388E290E0FC0110821C821D8229
:1001900019821A821B8280E290E0FC0180818C83AC
:1001A00083E290E0FC0180818D8319821A820CC069
:1001B0006A818C810E948800882319F089818F5F71
:1001C00089838A818F5F8A838A81883088F31B8242
:1001D0000CC06B818D810E948800882319F0898171
:1001E0008F5F89838B818F5F8B838B81883088F3CE
:1001F00088E290E02981FC012083CDCFF894FFCFE5
:0E02000000000002000000005F00000000008F
:00000001FF
