:100000000C9446000C945D000C945D000C945D0013
:100010000C945D000C945D000C945D000C945D00EC
:100020000C945D000C945D000C945D000C945D00DC
:100030000C945D000C945D000C945D000C945D00CC
:100040000C945D000C945D000C945D000C945D00BC
:100050000C945D000C945D000C945D000C945D00AC
:100060000C945D000C945D000C945D000C945D009C
:100070000C945D000C945D000C945D000C945D008C
:100080000C945D000C945D000C945D0011241FBE67
:10009000CFEFD0E4DEBFCDBF11E0A0E0B1E0E4EAF5
:1000A000F1E000E00BBF02C007900D92AE30B10747
:1000B000D9F70E9488000C94D0000C940000CF93D4
:1000C000DF9300D01F92CDB7DEB789837B836A832D
:1000D00089818A3031F48A819B81BC018DE00E9444
:1000E0005F0080EC90E0FC018081882F90E08072BE
:1000F00099270097B1F386EC90E02981FC012083D9
:1001000080E090E00F900F900F90DF91CF910895D5
:10011000CF93DF931F92CDB7DEB781E290E0FC0171
:10012000108287E290E02FEFFC01208382E290E0D2
:100130002FEFFC01208388E290E0FC0110821982FD
:1001400080E290E0FC018081898389818F3031F4E5
:1001500088E290E020E8FC01208321C088E290E062
:1001600020E230E0F9012081422F417020E230E0AE
:10017000F9012081522F547020E230E0F9012081F2
:100180002870220F250F522F550F20E230E0F90181
:1001900020812270250F220F240FFC012083D0CF55
:0401A000F894FFCF01
:0E01A40000000002000000005F0000000000EC
:00000001FF
